{
  "_format": "hh-sol-artifact-1",
  "contractName": "AccountTransfer",
  "sourceName": "contracts/AccountTransfer.sol",
  "abi": [
    {
      "anonymous": false,
      "inputs": [
        {
          "indexed": false,
          "internalType": "address",
          "name": "from",
          "type": "address"
        },
        {
          "indexed": false,
          "internalType": "address",
          "name": "receiver",
          "type": "address"
        },
        {
          "indexed": false,
          "internalType": "uint256",
          "name": "amount",
          "type": "uint256"
        },
        {
          "indexed": false,
          "internalType": "string",
          "name": "message",
          "type": "string"
        },
        {
          "indexed": false,
          "internalType": "uint256",
          "name": "timestamp",
          "type": "uint256"
        },
        {
          "indexed": false,
          "internalType": "string",
          "name": "keyword",
          "type": "string"
        }
      ],
      "name": "Transfer",
      "type": "event"
    },
    {
      "inputs": [
        {
          "internalType": "address payable",
          "name": "receiver",
          "type": "address"
        },
        {
          "internalType": "uint256",
          "name": "amount",
          "type": "uint256"
        },
        {
          "internalType": "string",
          "name": "message",
          "type": "string"
        },
        {
          "internalType": "string",
          "name": "keyword",
          "type": "string"
        }
      ],
      "name": "addRecord",
      "outputs": [],
      "stateMutability": "nonpayable",
      "type": "function"
    },
    {
      "inputs": [],
      "name": "getRecord",
      "outputs": [
        {
          "components": [
            {
              "internalType": "address",
              "name": "sender",
              "type": "address"
            },
            {
              "internalType": "address",
              "name": "receiver",
              "type": "address"
            },
            {
              "internalType": "uint256",
              "name": "amount",
              "type": "uint256"
            },
            {
              "internalType": "string",
              "name": "message",
              "type": "string"
            },
            {
              "internalType": "uint256",
              "name": "timestamp",
              "type": "uint256"
            },
            {
              "internalType": "string",
              "name": "keyword",
              "type": "string"
            }
          ],
          "internalType": "struct AccountTransfer.TransferStruct[]",
          "name": "",
          "type": "tuple[]"
        }
      ],
      "stateMutability": "view",
      "type": "function"
    },
    {
      "inputs": [],
      "name": "getRecordCount",
      "outputs": [
        {
          "internalType": "uint256",
          "name": "",
          "type": "uint256"
        }
      ],
      "stateMutability": "view",
      "type": "function"
    }
  ],
  "bytecode": "0x608060405234801561001057600080fd5b50610b73806100206000396000f3fe608060405234801561001057600080fd5b50600436106100415760003560e01c8063a0efade714610046578063ca267f2814610062578063f18ad6fb14610080575b600080fd5b610060600480360381019061005b91906105cc565b61009e565b005b61006a610247565b60405161007791906108c6565b60405180910390f35b610088610254565b60405161009591906108a4565b60405180910390f35b60016040518060c001604052803373ffffffffffffffffffffffffffffffffffffffff1681526020018673ffffffffffffffffffffffffffffffffffffffff16815260200185815260200184815260200142815260200183815250908060018154018082558091505060019003906000526020600020906006020160009091909190915060008201518160000160006101000a81548173ffffffffffffffffffffffffffffffffffffffff021916908373ffffffffffffffffffffffffffffffffffffffff16021790555060208201518160010160006101000a81548173ffffffffffffffffffffffffffffffffffffffff021916908373ffffffffffffffffffffffffffffffffffffffff1602179055506040820151816002015560608201518160030190805190602001906101d6929190610497565b506080820151816004015560a08201518160050190805190602001906101fd929190610497565b5050507f416cfa4330a4565f45c2fd2dd4826a83a37443aba2ce6f79477c7355afac35fa33858585428660405161023996959493929190610835565b60405180910390a150505050565b6000600180549050905090565b60606001805480602002602001604051908101604052809291908181526020016000905b8282101561048e57838290600052602060002090600602016040518060c00160405290816000820160009054906101000a900473ffffffffffffffffffffffffffffffffffffffff1673ffffffffffffffffffffffffffffffffffffffff1673ffffffffffffffffffffffffffffffffffffffff1681526020016001820160009054906101000a900473ffffffffffffffffffffffffffffffffffffffff1673ffffffffffffffffffffffffffffffffffffffff1673ffffffffffffffffffffffffffffffffffffffff1681526020016002820154815260200160038201805461036190610a6e565b80601f016020809104026020016040519081016040528092919081815260200182805461038d90610a6e565b80156103da5780601f106103af576101008083540402835291602001916103da565b820191906000526020600020905b8154815290600101906020018083116103bd57829003601f168201915b50505050508152602001600482015481526020016005820180546103fd90610a6e565b80601f016020809104026020016040519081016040528092919081815260200182805461042990610a6e565b80156104765780601f1061044b57610100808354040283529160200191610476565b820191906000526020600020905b81548152906001019060200180831161045957829003601f168201915b50505050508152505081526020019060010190610278565b50505050905090565b8280546104a390610a6e565b90600052602060002090601f0160209004810192826104c5576000855561050c565b82601f106104de57805160ff191683800117855561050c565b8280016001018555821561050c579182015b8281111561050b5782518255916020019190600101906104f0565b5b509050610519919061051d565b5090565b5b8082111561053657600081600090555060010161051e565b5090565b600061054d61054884610912565b6108e1565b90508281526020810184848401111561056557600080fd5b610570848285610a2c565b509392505050565b60008135905061058781610b0f565b92915050565b600082601f83011261059e57600080fd5b81356105ae84826020860161053a565b91505092915050565b6000813590506105c681610b26565b92915050565b600080600080608085870312156105e257600080fd5b60006105f087828801610578565b9450506020610601878288016105b7565b935050604085013567ffffffffffffffff81111561061e57600080fd5b61062a8782880161058d565b925050606085013567ffffffffffffffff81111561064757600080fd5b6106538782880161058d565b91505092959194509250565b600061066b8383610787565b905092915050565b61067c816109f6565b82525050565b61068b816109a8565b82525050565b61069a816109a8565b82525050565b60006106ab82610952565b6106b58185610975565b9350836020820285016106c785610942565b8060005b8581101561070357848403895281516106e4858261065f565b94506106ef83610968565b925060208a019950506001810190506106cb565b50829750879550505050505092915050565b60006107208261095d565b61072a8185610986565b935061073a818560208601610a3b565b61074381610afe565b840191505092915050565b60006107598261095d565b6107638185610997565b9350610773818560208601610a3b565b61077c81610afe565b840191505092915050565b600060c08301600083015161079f6000860182610682565b5060208301516107b26020860182610682565b5060408301516107c56040860182610817565b50606083015184820360608601526107dd8282610715565b91505060808301516107f26080860182610817565b5060a083015184820360a086015261080a8282610715565b9150508091505092915050565b610820816109ec565b82525050565b61082f816109ec565b82525050565b600060c08201905061084a6000830189610691565b6108576020830188610673565b6108646040830187610826565b8181036060830152610876818661074e565b90506108856080830185610826565b81810360a0830152610897818461074e565b9050979650505050505050565b600060208201905081810360008301526108be81846106a0565b905092915050565b60006020820190506108db6000830184610826565b92915050565b6000604051905081810181811067ffffffffffffffff8211171561090857610907610acf565b5b8060405250919050565b600067ffffffffffffffff82111561092d5761092c610acf565b5b601f19601f8301169050602081019050919050565b6000819050602082019050919050565b600081519050919050565b600081519050919050565b6000602082019050919050565b600082825260208201905092915050565b600082825260208201905092915050565b600082825260208201905092915050565b60006109b3826109cc565b9050919050565b60006109c5826109cc565b9050919050565b600073ffffffffffffffffffffffffffffffffffffffff82169050919050565b6000819050919050565b6000610a0182610a08565b9050919050565b6000610a1382610a1a565b9050919050565b6000610a25826109cc565b9050919050565b82818337600083830152505050565b60005b83811015610a59578082015181840152602081019050610a3e565b83811115610a68576000848401525b50505050565b60006002820490506001821680610a8657607f821691505b60208210811415610a9a57610a99610aa0565b5b50919050565b7f4e487b7100000000000000000000000000000000000000000000000000000000600052602260045260246000fd5b7f4e487b7100000000000000000000000000000000000000000000000000000000600052604160045260246000fd5b6000601f19601f8301169050919050565b610b18816109ba565b8114610b2357600080fd5b50565b610b2f816109ec565b8114610b3a57600080fd5b5056fea2646970667358221220fccf31c3eeb851427a7a62b0a3ff3de014cf5f6b667328adbc1d6f967c35c7b964736f6c63430008000033",
  "linkReferences": {},
  "deployedLinkReferences": {}
}