{
  "_format": "hh-sol-artifact-1",
  "contractName": "AccountTemplate",
  "sourceName": "contracts/AccountTemplate.sol",
  "abi": [
    {
      "inputs": [
        {
          "internalType": "address",
          "name": "",
          "type": "address"
        }
      ],
      "name": "shopping",
      "outputs": [
        {
          "internalType": "address",
          "name": "seller",
          "type": "address"
        },
        {
          "internalType": "address",
          "name": "contractAddress",
          "type": "address"
        }
      ],
      "stateMutability": "view",
      "type": "function"
    }
  ],
  "bytecode": "0x608060405234801561001057600080fd5b506101ba806100206000396000f3fe608060405234801561001057600080fd5b506004361061002b5760003560e01c8063838f2cf114610030575b600080fd5b61004a600480360381019061004591906100da565b610061565b604051610058929190610112565b60405180910390f35b60006020528060005260406000206000915090508060000160009054906101000a900473ffffffffffffffffffffffffffffffffffffffff16908060010160009054906101000a900473ffffffffffffffffffffffffffffffffffffffff16905082565b6000813590506100d48161016d565b92915050565b6000602082840312156100ec57600080fd5b60006100fa848285016100c5565b91505092915050565b61010c8161013b565b82525050565b60006040820190506101276000830185610103565b6101346020830184610103565b9392505050565b60006101468261014d565b9050919050565b600073ffffffffffffffffffffffffffffffffffffffff82169050919050565b6101768161013b565b811461018157600080fd5b5056fea26469706673582212206ea26a37aa7639bc204d0ad742bbd79b0527ea274387c242c8a5cdcf8f307f6464736f6c63430008000033",
  "linkReferences": {},
  "deployedLinkReferences": {}
}